:020000040800F2
:1000000000000120C9220008192300081923000854
:100010001923000819230008192300080000000014
:10002000000000000000000000000000192300088C
:10003000192300080000000019230008A91D00086A
:1000400000000000192300081923000819230008E4
:100050001923000819230008192300081923000890
:100060001923000819230008192300081923000880
:100070001923000819230008192300081923000870
:1000800019230008192300081923000800000000A4
:10009000000000000000000000000000192300081C
:1000A0001923000819230008192300081923000840
:1000B0001923000819230008192300081923000830
:1000C0001923000819230008192300081923000820
:1000D000192300088D220008A1220008000000005A
:1000E0001923000819230008192300080000000044
:1000F00000000000000000000000000019230008BC
:100100000000000019230008192300081923000823
:1001100000000000000000000000000000000000DF
:1001200019230008192300081923000819230008BF
:10013000192300080000000000000000000000007B
:10014000000000000000000000000000192300086B
:10015000192300081923000819230008B5220008F4
:100160001923000819230008000000000000000007
:10017000000000000000000000000000000000007F
:10018000000000000000000000000000000000006F
:040190001923000827
:1001980010B5054C237833B9044B13B10448AFF3B9
:1001A80000800123237010BD04000020000000001F
:1001B8006423000808B5034B1BB103490348AFF398
:1001C800008008BD0000000008000020642300082B
:1001D80081F0004102E000BF83F0004330B54FEAF0
:1001E80041044FEA430594EA050F08BF90EA020F5D
:1001F8001FBF54EA000C55EA020C7FEA645C7FEAF0
:10020800655C00F0E2804FEA5454D4EB5555B8BF12
:100218006D420CDD2C4480EA020281EA030382EA83
:10022800000083EA010180EA020281EA0303362D15
:1002380088BF30BD11F0004F4FEA01314FF4801CE8
:100248004CEA113102D0404261EB410113F0004FFA
:100258004FEA03334CEA133302D0524263EB4303B1
:1002680094EA050F00F0A780A4F10104D5F1200E4F
:100278000DDB02FA0EFC22FA05F2801841F10001AA
:1002880003FA0EF2801843FA05F359410EE0A5F17E
:1002980020050EF1200E012A03FA0EFC28BF4CF0AF
:1002A800020C43FA05F3C01851EBE37101F0004565
:1002B80007D54FF0000EDCF1000C7EEB00006EEB72
:1002C8000101B1F5801F1BD3B1F5001F0CD34908FC
:1002D8005FEA30004FEA3C0C04F101044FEA445253
:1002E80012F5800F80F09A80BCF1004F08BF5FEADA
:1002F800500C50F1000041EB045141EA050130BDBA
:100308005FEA4C0C404141EB0101013C28BFB1F5CB
:10031800801FE9D291F0000F04BF01460020B1FA16
:1003280081F308BF2033A3F10B03B3F120020CDAE9
:100338000C3208DD02F1140CC2F10C0201FA0CF0C7
:1003480021FA02F10CE002F11402D8BFC2F1200C2C
:1003580001FA02F120FA0CFCDCBF41EA0C019040E2
:10036800E41AA2BF01EB0451294330BD6FEA04042B
:100378001F3C1CDA0C340EDC04F11404C4F1200216
:1003880020FA04F001FA02F340EA030021FA04F328
:1003980045EA030130BDC4F10C04C4F1200220FA7F
:1003A80002F001FA04F340EA0300294630BD21FABD
:1003B80004F0294630BD94F0000F83F4801306BF83
:1003C80081F480110134013D4EE77FEA645C18BF77
:1003D8007FEA655C29D094EA050F08BF90EA020F0E
:1003E80005D054EA000C04BF1946104630BD91EA06
:1003F800030F1EBF0021002030BD5FEA545C05D109
:100408004000494128BF41F0004130BD14F5800447
:100418003CBF01F5801130BD01F0004545F0FE41BB
:1004280041F470014FF0000030BD7FEA645C1ABFF0
:10043800194610467FEA655C1CBF0B46024650EA27
:10044800013406BF52EA033591EA030F41F4002153
:1004580030BD00BF90F0000F04BF0021704730B5D9
:100468004FF4806404F132044FF000054FF00001AE
:1004780050E700BF90F0000F04BF0021704730B56F
:100488004FF4806404F1320410F0004548BF404244
:100498004FF000013EE700BF42004FEAE2014FEA99
:1004A80031014FEA02701FBF12F07F4393F07F4F74
:1004B80081F06051704732F07F4208BF704793F077
:1004C8007F4F04BF41F40021704730B54FF460748A
:1004D80001F0004521F000411CE700BF50EA01028D
:1004E80008BF704730B54FF000050AE050EA010236
:1004F80008BF704730B511F0004502D5404261EBA6
:1005080041014FF4806404F132045FEA915C3FF4E6
:10051800D8AE4FF003025FEADC0C18BF03325FEA83
:10052800DC0C18BF033202EBDC02C2F1200300FA34
:1005380003FC20FA02F001FA03FE40EA0E0021FA59
:1005480002F11444BDE600BF70B54FF0FF0C4CF447
:10055800E06C1CEA11541DBF1CEA135594EA0C0FF9
:1005680095EA0C0F00F0DEF82C4481EA030621EA34
:100578004C5123EA4C5350EA013518BF52EA03356F
:1005880041F4801143F4801338D0A0FB02CE4FF021
:100598000005E1FB02E506F00042E0FB03E54FF051
:1005A8000006E1FB03569CF0000F18BF4EF0010E49
:1005B800A4F1FF04B6F5007F64F5407404D25FEA45
:1005C8004E0E6D4146EB060642EAC62141EA5551F8
:1005D8004FEAC52040EA5E504FEACE2EB4F1FD0C3A
:1005E80088BFBCF5E06F1ED8BEF1004F08BF5FEAB8
:1005F800500E50F1000041EB045170BD06F000466A
:1006080046EA010140EA020081EA0301B4EB5C0416
:10061800C2BFD4EB0C0541EA045170BD41F480110E
:100628004FF0000E013C00F3AB8014F1360FDEBF33
:10063800002001F0004170BDC4F10004203C35DA0F
:100648000C341BDC04F11404C4F1200500FA05F392
:1006580020FA04F001FA05F240EA020001F0004233
:1006680021F0004110EBD37021FA04F642EB0601A9
:100678005EEA430E08BF20EAD37070BDC4F10C04D3
:10068800C4F1200500FA04F320FA05F001FA04F297
:1006980040EA020001F0004110EBD37041F1000183
:1006A8005EEA430E08BF20EAD37070BDC4F120058E
:1006B80000FA05F24EEA020E20FA04F301FA05F2F6
:1006C80043EA020321FA04F001F0004121FA04F29E
:1006D80020EA020000EBD3705EEA430E08BF20EA6E
:1006E800D37070BD94F0000F0FD101F000464000A8
:1006F80041EB010111F4801F08BF013CF7D041EA2A
:10070800060195F0000F18BF704703F0004652002D
:1007180043EB030313F4801F08BF013DF7D043EAFE
:100728000603704794EA0C0F0CEA135518BF95EAB4
:100738000C0F0CD050EA410618BF52EA4306D1D13B
:1007480081EA030101F000414FF0000070BD50EA5A
:10075800410606BF1046194652EA430619D094EAE4
:100768000C0F02D150EA013613D195EA0C0F05D1CE
:1007780052EA03361CBF104619460AD181EA030122
:1007880001F0004141F0FE4141F470014FF00000DA
:1007980070BD41F0FE4141F4780170BD70B54FF075
:1007A800FF0C4CF4E06C1CEA11541DBF1CEA1355F5
:1007B80094EA0C0F95EA0C0F00F0A7F8A4EB0504D7
:1007C80081EA030E52EA03354FEA013100F08880CE
:1007D8004FEA03334FF0805545EA131343EA126397
:1007E8004FEA022245EA111545EA10654FEA00264C
:1007F8000EF000419D4208BF964244F1FD0404F505
:10080800407402D25B084FEA3202B61A65EB030560
:100818005B084FEA32024FF480104FF4002CB6EB1D
:10082800020E75EB030E22BFB61A754640EA0C009D
:100838005B084FEA3202B6EB020E75EB030E22BFDD
:10084800B61A754640EA5C005B084FEA3202B6EB1E
:10085800020E75EB030E22BFB61A754640EA9C00DD
:100868005B084FEA3202B6EB020E75EB030E22BFAD
:10087800B61A754640EADC0055EA060E18D04FEA6B
:10088800051545EA16754FEA06164FEAC30343EA0B
:1008980052734FEAC2025FEA1C1CC0D111F4801FD8
:1008A8000BD141EA00014FF000004FF0004CB6E7D1
:1008B80011F4801F04BF01430020B4F1FD0C88BF70
:1008C800BCF5E06F3FF6AFAEB5EB030C04BFB6EB7B
:1008D800020C5FEA500C50F1000041EB045170BD6E
:1008E8000EF0004E4EEA113114EB5C04C2BFD4EB9B
:1008F8000C0541EA045170BD41F480114FF0000E1F
:10090800013C90E645EA060E8DE60CEA135594EA9A
:100918000C0F08BF95EA0C0F3FF43BAF94EA0C0F9D
:100928000AD150EA01347FF434AF95EA0C0F7FF412
:1009380025AF104619462CE795EA0C0F06D152EA66
:1009480003353FF4FDAE1046194622E750EA41064A
:1009580018BF52EA43067FF4C5AE50EA41047FF45B
:100968000DAF52EA43057FF4EBAE12E74A0011D20D
:1009780012F5001211D20DD56FF47873B3EB6252F1
:100988000ED44FEAC12343F0004343EA505323FAFD
:1009980002F070474FF00000704750EA013002D172
:1009A8004FF0FF3070474FF00000704780B582B0BD
:1009B80000AF154B93F90030002B17DB0021032003
:1009C80001F0B2FB0346FB710F4B93F90030194657
:1009D8000E4AFB7953540C4B93F90030032B05D185
:1009E800094BFF221A700A4B01221A70064B93F921
:1009F8000030DBB20133DBB25AB2034B1A7000BFCE
:100A08000837BD4680BD00BF2A0000202400002012
:100A18002800002080B584B000AF03460A46FB7169
:100A28001346BB710023FB7300224021032001F011
:100A380003FBFB799BB200221946032001F0FCFA64
:100A480000223D21032001F0F7FABB79002B05D1E4
:100A580000223021032001F0EFFA6FE0BB79092B67
:100A680009D8BB799BB230339BB2002219460320C8
:100A780001F0E2FA62E0BB79632B23D8BB79344AF0
:100A8800A2FB0323DB08FB73FB7B9BB230339BB2D7
:100A980000221946032001F0CFFABA792C4BA3FBA8
:100AA8000213D9080B469B000B445B00D31AFB7357
:100AB800FB7B9BB230339BB200221946032001F026
:100AC800BBFA3BE0BB79234AA2FB03235B09FB7318
:100AD800FB7B9BB230339BB200221946032001F006
:100AE800ABFABB791A4AA2FB0323DB08DAB2184B2C
:100AF800A3FB0213D9080B469B000B445B00D31AD7
:100B0800FB73FB7B9BB230339BB200221946032058
:100B180001F092FABA790E4BA3FB0213D9080B46DF
:100B28009B000B445B00D31AFB73FB7B9BB23033F7
:100B38009BB200221946032001F07EFA00223B21D5
:100B4800032001F079FA00BF1037BD4680BD00BF11
:100B5800CDCCCCCC1F85EB5180B500AF042000F084
:100B6800A9FB0346DAB21F4B1A700021002000F0DF
:100B7800F5FA1D4800F01EFB1A4B1B78143B18466B
:100B880000F036FB174B1B78192B09D9174B1B782C
:100B9800012B05D101220C21012000F047FD0CE0BA
:100BA800104B1B78182B08D8104B1B78012B04D13D
:100BB80000220C21012000F039FD0D4B1A78094B59
:100BC8001B789A420BD0074B1A78094B1A70054BC1
:100BD8001B78143BDBB219465420FFF71BFF00BFFC
:100BE80080BD00BF200000207C23000829000020D1
:100BF8002B00002080B500AF0A21002000F0AAFCDD
:100C080003461A46094B1A70094B1A78074B1B788A
:100C18009A4209D0054B1A78054B1A70034B1B787A
:100C280019464620FFF7F6FE00BF80BD2C000020C5
:100C38000000002080B500AF052000F025FB03462A
:100C48001A460A4B1A80094B1A88094B1B889A4284
:100C58000AD0064B1A88064B1A80044B1B88DBB255
:100C680019464C20FFF7D6FE00BF80BD2E0000209D
:100C78003000002080B586B000AF0022002101209E
:100C880000F000FF0021002000F0AAFE0121002052
:100C980000F0A6FE0221002000F0A2FE0821032099
:100CA80000F09EFE0521032000F09AFE012200219B
:100CB800002000F067FB01220121002000F062FB08
:100CC80001220221002000F05DFB01220321002007
:100CD80000F058FB01220621002000F053FB0122FE
:100CE8000721002000F04EFB01220C21012000F01A
:100CF80049FB01220E21022000F044FB01220F21B2
:100D0800022000F03FFB00220A21002000F03AFBFD
:100D180001220A21002000F0ADFB0122052101205B
:100D280000F030FB01220621012000F02BFB0322FA
:100D38000421002000F026FB03220521002000F0FA
:100D480021FB02220B21002000F01CFB02220C21B7
:100D5800002000F017FB08220B21002000F03AFDCC
:100D680008220C21002000F035FD00F085FF00F07E
:100D78009BFA00F0E0F84FF41653FB6020233B8207
:100D8800604B7B610023FB8000233B8100237B8138
:100D98000C23BB803B1D1946032001F00FF8FFF719
:100DA800DBFE642000F0B0FFFFF724FF642000F0B2
:100DB800ABFFFFF73FFF642000F0A6FF524B1B7804
:100DC800012BECD1504B00221A70504B5B784C2B06
:100DD80063D04C2B00F38E80442B24D0462B40F05C
:100DE80089804A4B9B78302B08D100220C210120A6
:100DF80000F01CFC464B00221A707DE0434B9B78A8
:100E0800312B08D101220C21012000F00FFC404BAE
:100E180000221A7070E03D4B9B78412B6CD13C4B03
:100E280001221A7068E0394B9B78302B0AD10022D6
:100E38000E21022000F0FAFB00220F21022000F010
:100E4800F5FB5BE0314B9B78312B57D101220E210A
:100E5800022000F0EBFB00220F21022000F0E6FB4D
:100E68004FF47A7000F050FF00220E21022000F0AB
:100E7800DDFB01220F21022000F0D8FB4FF47A702D
:100E880000F042FF00220E21022000F0CFFB0022DA
:100E98000F21022000F0CAFB30E01C4B9B78302B5E
:100EA8000AD100220521012000F0C0FB0022062102
:100EB800012000F0BBFB23E0144B9B78312B0AD1B7
:100EC80001220521012000F0B1FB002206210120AA
:100ED80000F0ACFB14E00D4B9B78322B10D10122B3
:100EE8000521012000F0A2FB01220621012000F0CB
:100EF8009DFB05E000BF52E700BF50E700BF4EE78B
:100F080000BF4CE7B5090008280000202400002095
:100F18002900002080B500AF01220621002000F042
:100F280085FB012000F0F0FE00220621002000F0E1
:100F38007DFB00BF80BD80B500AF202000F0E4FE3F
:100F4800022000F091F8282000F08EF8012000F02F
:100F5800DBFE0C2000F088F8012000F0D5FE01200F
:100F680000F082F8022000F0CFFE062000F07CF8A6
:100F7800072000F0C9FE00BF80BD80B582B000AF79
:100F88000346FB7101220721002000F04FFB0022DD
:100F98000921012000F04AFBFB791B09DBB203F0B1
:100FA8000103DBB21A460321002000F03FFBFB7966
:100FB8005B09DBB203F00103DBB21A460221002011
:100FC80000F034FBFB799B09DBB203F00103DBB2D1
:100FD8001A460121002000F029FBFB79DB09DBB26E
:100FE8001A460021002000F021FBFFF793FF0122A1
:100FF8000721002000F01AFB00220921012000F03F
:1010080015FBFB7903F00103DBB21A46032100202C
:1010180000F00CFBFB795B08DBB203F00103DBB2E9
:101028001A460221002000F001FBFB799B08DBB285
:1010380003F00103DBB21A460121002000F0F6FAA2
:10104800FB79DB08DBB203F00103DBB21A460021AF
:10105800002000F0EBFAFFF75DFF0C2000F054FED3
:1010680000BF0837BD4680BD80B584B000AF0346D9
:10107800FB710023FB7300220721002000F0D6FA41
:1010880000220921012000F0D1FAFB791B09DBB20B
:1010980003F00103DBB21A460321002000F0C6FA70
:1010A800FB795B09DBB203F00103DBB21A460221CC
:1010B800002000F0BBFAFB799B09DBB203F00103C7
:1010C800DBB21A460121002000F0B0FAFB79DB09F7
:1010D800DBB21A460021002000F0A8FAFFF71AFF39
:1010E80000220721002000F0A1FA00220921012096
:1010F80000F09CFAFB7903F00103DBB21A460321E6
:10110800002000F093FAFB795B08DBB203F00103DF
:10111800DBB21A460221002000F088FAFB799B080E
:10112800DBB203F00103DBB21A460121002000F014
:101138007DFAFB79DB08DBB203F00103DBB21A4668
:101148000021002000F072FAFFF7E4FE0C2000F006
:10115800DBFDFB7B18461037BD4680BD80B584B0EB
:1011680000AF03460A46FB711346BB710023FB73AD
:10117800FB79012B02D8BB790F2B02D90123FB7312
:1011880013E0FB79002B02D0012B07D00DE0BB79CF
:10119800803BDBB21846FFF767FF06E0BB79403BB0
:1011A800DBB21846FFF760FF00BFFB7B184610371D
:1011B800BD4680BD80B584B000AF78600023FB7366
:1011C8007B68002B0AD10123FB730BE07B681B783B
:1011D8001846FFF7D2FE7B6801337B607B681B787B
:1011E800002BF3D1FB7B18461037BD4680BD0000AD
:1011F80080B588B000AF786000237B770023FB7749
:101208007B68002B1ED13020FFF7B7FE35E07968E8
:101218001C4BA3FB0123DA0813469B0013445B0015
:10122800CA1A13467B777B68164AA2FB0323DB089E
:101238007B60FB7F20333B447A7F03F8142CFB7FD1
:101248000133FB777B68002BE1D1FB7F013BDBB2ED
:10125800BB770EE097F91E3020333B4413F8143C5B
:101268003033DBB21846FFF788FEBB7F013BDBB2A9
:10127800BB7797F91E30002BECDA00BF2037BD464C
:1012880080BD00BFCDCCCCCC80B584B000AF0346C8
:10129800FB80FB88184600F051F80346FB81FB8968
:1012A80018461037BD4680BD80B500AF00F022F863
:1012B80000BF80BD80B584B000AF0346FB80FB88CB
:1012C800184600F03BF80346FB81FB8941F288325F
:1012D80002FB03F31B0BFB81FB89054AA2FB0323DB
:1012E800DB08BB81BB8918461037BD4680BD00BFEF
:1012F800CDCCCCCC80B400AF0E4B5B680D4A23F04C
:10130800807353600B4B5B680A4A23F00073536089
:10131800094B1B68084A43F400031360054B9B689C
:10132800044A43F00103936000BFBD465DF8047BA7
:10133800704700BF002001400423014080B483B0FF
:1013480000AF0346FB800E4B00225A630C4AFB8811
:1013580053630B4B9B680A4A43F08043936000BF7A
:10136800074B1B6803F00203002BF9D0044BDB6C1E
:101378009BB218460C37BD465DF8047B704700BF2A
:101388000020014080B483B000AF0346FB710B46D8
:10139800BB7113467B71FB79052B57D801A252F814
:1013A80023F000BFC5130008DD130008F51300087B
:1013B8000D140008251400083D140008274B1B686D
:1013C8007979BA79520001FA02F21146234A0B439D
:1013D80013603CE0224B1B687979BA79520001FA14
:1013E80002F211461E4A0B43136030E01D4B1B6886
:1013F8007979BA79520001FA02F21146194A0B4377
:10140800136024E0184B1B687979BA79520001FA05
:1014180002F21146144A0B43136018E0134B1B6881
:101428007979BA79520001FA02F211460F4A0B4350
:1014380013600CE00E4B1B687979BA79520001FAF7
:1014480002F211460A4A0B43136000E000BF00BFD6
:101458000C37BD465DF8047B704700BF00000240B2
:101468000004024000080240000C02400010024044
:10147800001C024080B485B000AF0346B9607A60B2
:10148800FB73FB7B052B51D801A252F823F000BF58
:10149800B1140008C7140008DD140008F31400088C
:1014A800091500081F150008244BDA68BB685B00A3
:1014B800796801FA03F321491343CB6037E0204BE5
:1014C800DA68BB685B00796801FA03F31C491343C7
:1014D800CB602CE01B4BDA68BB685B00796801FACB
:1014E80003F318491343CB6021E0174BDA68BB6854
:1014F8005B00796801FA03F313491343CB6016E0E4
:10150800124BDA68BB685B00796801FA03F30F498C
:101518001343CB600BE00E4BDA68BB685B0079685D
:1015280001FA03F30A491343CB6000E000BF00BF90
:101538001437BD465DF8047B704700BF00000240C9
:101548000004024000080240000C02400010024063
:10155800001C024080B485B000AF03460A46FB7108
:101568001346BB710023FB73FB79052B4AD801A2F4
:1015780052F823F095150008A9150008BD150008B4
:10158800D1150008E5150008F9150008214B1A695E
:10159800BB7922FA03F3DBB203F00103FB7332E0F9
:1015A8001D4B1A69BB7922FA03F3DBB203F001037E
:1015B800FB7328E0194B1A69BB7922FA03F3DBB2F3
:1015C80003F00103FB731EE0154B1A69BB7922FA7D
:1015D80003F3DBB203F00103FB7314E0114B1A6948
:1015E800BB7922FA03F3DBB203F00103FB730AE0D1
:1015F8000D4B1A69BB7922FA03F3DBB203F001033E
:10160800FB7300E000BFFB7B18461437BD465DF84E
:10161800047B7047000002400004024000080240BA
:10162800000C024000100240001C024080B483B04D
:1016380000AF0346FB710B46BB7113467B717B7988
:10164800012B55D1FB79052B00F2AC8001A252F891
:1016580023F000BF751600088B160008A1160008B5
:10166800B7160008CD160008E3160008524B5B6950
:10167800BA79012101FA02F211464F4A0B4353612C
:1016880093E04E4B5B69BA79012101FA02F21146E7
:101698004A4A0B43536188E0494B1B68BA790121D8
:1016A80001FA02F21146464A0B4313607DE0454BAE
:1016B8005B69BA79012101FA02F21146414A0B43EA
:1016C800536172E0404B5B69BA79012101FA02F279
:1016D80011463D4A0B43536167E03C4B5B69BA795D
:1016E800012101FA02F21146384A0B4353615CE0CA
:1016F800FB79052B58D801A252F823F01D170008D2
:10170800351700084D170008651700087D170008F1
:1017180095170008284B5B69BA79012101FA02F292
:10172800D2431146244A0B4053613EE0234B5B6988
:10173800BA79012101FA02F2D24311461F4A0B403D
:10174800536132E0224B5B69BA79012101FA02F256
:10175800D24311461E4A0B40536126E0194B5B6980
:10176800BA79012101FA02F2D2431146154A0B4017
:1017780053611AE0144B5B69BA79012101FA02F24C
:10178800D2431146104A0B4053610EE00F4B5B6980
:10179800BA79012101FA02F2D24311460B4A0B40F1
:1017A800536102E000BF00E000BF00BF0C37BD4638
:1017B8005DF8047B704700BF00000240000402404F
:1017C80014080240000C024000100240001C0240B5
:1017D8000008024080B483B000AF0346FB710B469B
:1017E800BB7113467B71BB79072B5BD8FB79052B43
:1017F80000F2BE8001A252F823F000BF1D180008B5
:10180800351800084D180008651800087D180008EC
:10181800951800085B4B1B6A7979BA79920001FA2E
:1018280002F21146574A0B431362A4E0564B1B6A57
:101838007979BA79920001FA02F21146524A0B43B9
:10184800136298E0514B1B6A7979BA79920001FAD0
:1018580002F211464D4A0B4313628CE04C4B1B6A53
:101868007979BA79920001FA02F21146484A0B4393
:10187800136280E0474B1B6A7979BA79920001FAC2
:1018880002F21146434A0B43136274E0424B1B6A4F
:101898007979BA79920001FA02F211463E4A0B436D
:1018A800136268E0FB79052B64D801A252F823F093
:1018B800D1180008ED1800080919000825190008B2
:1018C800411900085D1900082E4B5B6A7979BA79CD
:1018D80002F00702920001FA02F21146294A0B436C
:1018E800536248E0284B5B6A7979BA7902F00702BB
:1018F800920001FA02F21146234A0B4353623AE07E
:10190800224B5B6A7979BA7902F00702920001FAF0
:1019180002F211461D4A0B4353622CE01C4B5B6AD2
:101928007979BA7902F00702920001FA02F21146B7
:10193800174A0B4353621EE0164B5B6A7979BA79F2
:1019480002F00702920001FA02F21146114A0B4313
:10195800536210E0104B5B6A7979BA7902F007029A
:10196800920001FA02F211460B4A0B43536202E05D
:1019780000BF00E000BF00BF0C37BD465DF8047B28
:10198800704700BF00000240000402400008024007
:10199800000C024000100240001C024080B485B0D8
:1019A80000AF0346FB71FB795B09FB73FB7903F01E
:1019B8001F03BB73094AFB7B52F82320BB7B012121
:1019C80001FA03F318460549FB7B024341F823203B
:1019D80000BF1437BD465DF8047B704700E100E0A6
:1019E80080B483B000AF03460A46FB711346BB714F
:1019F800FB79032B36D801A252F823F0151A0008F8
:101A08002B1A0008411A0008571A0008194B1B68BE
:101A1800BA79012101FA02F21146164A0B43136002
:101A280021E0154B1B68BA79012101FA02F211462F
:101A3800114A0B43136016E0104B1B68BA79012159
:101A480001FA02F211460D4A0B4313600BE00C4BEE
:101A58001B68BA79012101FA02F21146084A0B43C0
:101A6800136000E000BF00BF0C37BD465DF8047B83
:101A7800704700BF303802403438024040380240D6
:101A88004438024080B483B000AF0346FB710B4674
:101A9800BB7113467B71FB79022B5DD0022B00F3DF
:101AA800DE80002B02D0012B39D0D8E0BB79002B87
:101AB80002D0012B19D031E06C4B1B686B4A43F400
:101AC80080331360694B1B68684A23F480231360D2
:101AD800674B1B68664A43F001031360644B1B683D
:101AE800634A23F00203136018E0604B1B685F4AE7
:101AF80043F4803313605D4B1B685C4A43F48023D6
:101B080013605B4B1B685A4A43F001031360584B40
:101B18001B68574A23F00203136000BF9FE0534B32
:101B280000221A60514B1B68504A43F001031360AE
:101B380000BF4E4B1B6803F00203002BF9D04C4B3F
:101B48001B684B4A23F001031360494B1B68484A42
:101B580023F00203136082E0444B00221A60454BD5
:101B680000221A607B79002B02D0012B57D075E038
:101B7800404B1B683F4A43F4803313603D4B1B685E
:101B88003C4A23F4003313603A4B1B68394A43F448
:101B980040531360374B1B68364A43F010031360F9
:101BA800334B334A1B681360314B1B68304A43F48C
:101BB800805313602E4B2E4A1B6813602B4B1B68F7
:101BC8002A4A43F48033136000BF284B1B6803F490
:101BD8000033002BF9D0254B1B68244A43F080734F
:101BE800136000BF214B1B6803F00073002BF9D072
:101BF800204B1B681F4A43F4800313601C4B1B686F
:101C08001B4A23F001031360194B1B68184A43F061
:101C180002031360164B164A1B6813601EE0134B31
:101C28001B68124A43F001031360104B1B680F4AEC
:101C380043F0807313600F4B1B680E4A23F4800334
:101C480013600B4B1B680A4A23F001031360084B0F
:101C58001B68074A43F00203136000BF00BF00BFC0
:101C68000C37BD465DF8047B704700BF0038024062
:101C7800083802400438024080B400AF084B1B68A3
:101C8800074A43F004031360054B1B68044A43F0FA
:101C98000203136000BFBD465DF8047B704700BFB8
:101CA80010E000E080B483B000AF78600C4B1B6894
:101CB8000B4A23F001031360094A7B68013B536018
:101CC800074B00229A60064B1B68054A43F0010344
:101CD800136000BF0C37BD465DF8047B704700BF3A
:101CE80010E000E080B400AF054B1B681B0CDBB2B2
:101CF80003F00103DBB21846BD465DF8047B70476C
:101D080010E000E00000000080B584B000AF78600B
:101D1800214B1B68204A23F0010313607868FEF703
:101D280099FB4FF000021D4BFEF738FD02460B46AB
:101D38001046194616A3D3E90023FEF705FC024610
:101D48000B4610461946FEF711FE0346FB60FB687A
:101D5800B3F1807F0ED3FB6803F17F430133FB604F
:101D68006FF07F40FFF79EFF00BFFFF7BBFF034602
:101D7800002BFAD0F868FFF795FF00BFFFF7B2FF16
:101D88000346002BFAD000BF00BF1037BD4680BD08
:101D98000000000080846E4110E000E000408F40A9
:101DA80080B500AF044B1B68002B02D0024B1B68A8
:101DB800984700BF80BD00BF3400002080B582B0C6
:101DC80000AF03463960FB71FB79032B00F0BD803F
:101DD800032B00F31481002B02D0012B5BD00EE102
:101DE8008C4A3B6813608C4BDB688B4A43F4005386
:101DF800D360894BDB683A6812881146864A0B43E0
:101E0800D360854BDB683A68D2881146824A0B4317
:101E1800D360814BDB683A68528811467E4A0B438F
:101E2800D3607D4B1B693A68928811467A4A0B4306
:101E380013613B689B681B01784AB2FBF3F31A01F4
:101E48003B689B689B007649B1FBF3F13B689B6854
:101E58001B017248B0FBF3F3642000FB03F3CB1AB9
:101E68001B017049A1FB03135B0903F00F036A49C7
:101E780013438B603B689B89002B00F0C280664B44
:101E8800DB683A6892891146634A0B43D360252080
:101E9800FFF784FDB5E0644A3B681360634BDB6879
:101EA800624A43F40053D360604BDB683A68128897
:101EB80011465E4A0B43D3605C4BDB683A68D288B4
:101EC80011465A4A0B43D360584BDB683A6852882C
:101ED8001146564A0B43D360544B1B693A689288A3
:101EE8001146524A0B4313613B689B681B014B4ADE
:101EF800B2FBF3F31A013B689B689B004849B1FBAE
:101F0800F3F13B689B681B014448B0FBF3F3642082
:101F180000FB03F3CB1A1B014249A1FB03135B0926
:101F280003F00F03414913438B603B689B89002BE7
:101F380069D03E4BDB683A68928911463B4A0B43AD
:101F4800D3602620FFF72AFD5DE0394A3B6813601D
:101F5800384BDB68374A43F40053D360354BDB68B2
:101F68003A6812881146334A0B43D360314BDB6819
:101F78003A68D28811462F4A0B43D3602D4BDB6851
:101F88003A68528811462B4A0B43D360294B1B6988
:101F98003A6892881146274A0B4313613B689B684D
:101FA8001B011E4AB2FBF3F31A013B689B689B00B6
:101FB8001B49B1FBF3F13B689B681B011748B0FB59
:101FC800F3F3642000FB03F3CB1A1B011549A1FBB3
:101FD80003135B0903F00F03164913438B603B6837
:101FE8009B89002B11D0134BDB683A689289114604
:101FF800104A0B43D3604720FFF7D0FC05E000BF31
:1020080004E000BF02E000BF00E000BF00BF0837E7
:10201800BD4680BD38000020001001400024F400B7
:102028000084D7171F85EB513C0000200044004076
:10203800400000200014014080B483B000AF034684
:10204800FB710B46BB801346BB71FB79032B3CD05D
:10205800032B55DC002B02D0012B1BD050E0BB79A1
:10206800002B06D100BF2A4B1B6803F08003002B0E
:10207800F9D0284B1B68DB88B3F5805F05D1BB8896
:10208800234AC3F3080353603BE0BB88204ADBB212
:10209800536036E0BB79002B06D100BF1E4B1B688E
:1020A80003F08003002BF9D01C4B1B68DB88B3F5C9
:1020B800805F05D1BB88184AC3F30803536020E04A
:1020C800BB88154ADBB253601BE0BB79002B06D1F5
:1020D80000BF134B1B6803F08003002BF9D0114B92
:1020E8001B68DB88B3F5805F05D1BB880C4AC3F356
:1020F8000803536005E0BB88094ADBB2536000E07F
:1021080000BF00BF0C37BD465DF8047B704700BFB9
:102118000010014038000020004400403C0000202E
:10212800001401404000002080B483B000AF034693
:102138000A46FB711346BB71FB79032B61D0032B55
:1021480000F38C80002B02D0012B2DD086E0BB79C8
:10215800002B06D100BF454B1B6803F02003002B62
:10216800F9D0434B1B68DB88B3F5805F0CD1404B3B
:102178001B685B88002B03D13C4B5B68DBB26EE0CD
:102188003A4B5B68DBB26AE0394B1B685B88002B13
:1021980003D1364B5B68DBB261E0344B5B68DBB282
:1021A80003F07F03DBB25AE0BB79002B06D100BFF6
:1021B800304B1B6803F02003002BF9D02E4B1B6813
:1021C800DB88B3F5805F0CD12B4B1B685B88002B39
:1021D80003D1284B5B68DBB241E0264B5B68DBB27E
:1021E8003DE0254B1B685B88002B03D1214B5B68C6
:1021F800DBB234E01F4B5B68DBB203F07F03DBB27A
:102208002DE0BB79002B06D100BF1C4B1B6803F0E7
:102218002003002BF9D01A4B1B68DB88B3F5805FCD
:102228000CD1174B1B685B88002B03D1134B5B68E1
:10223800DBB214E0114B5B68DBB210E0104B1B689B
:102248005B88002B03D10D4B5B68DBB207E00B4BBF
:102258005B68DBB203F07F03DBB200E000BF184627
:102268000C37BD465DF8047B704700BF0010014085
:1022780038000020004400403C00002000140140C9
:102288004000002080B500AF024B1B681B699847CF
:1022980000BF80BD3800002080B500AF024B1B682E
:1022A8001B69984700BF80BD3C00002080B500AF87
:1022B800024B1B681B69984700BF80BD4000002087
:1022C8000D488546AFF300800C480D490D4A0023A0
:1022D80002E0D458C4500433C4188C42F9D30A4AD3
:1022E8000A4C002301E013600432A242FBD300F041
:1022F80011F8FEF7BFFCFEE70000012000000020F7
:10230800040000208C230008040000204400002062
:10231800FEE7000070B50D4D0D4C641BA41000269F
:10232800A64209D10B4D0C4C00F018F8641BA41000
:102338000026A64205D170BD55F8043B98470136E2
:10234800EEE755F8043B98470136F2E78423000886
:10235800842300088423000888230008F8B500BFF8
:10236800F8BC08BC9E467047F8B500BFF8BC08BC6E
:042378009E467047C6
:08237C0054454D50203D2000A6
:04238400BD0100088F
:0423880099010008AF
:04238C00010000004C
:04000005080022C904
:00000001FF
